:090B7F004655434B20594F550027
:100A4A00120B3C7BFF7A0B797F7D057F01120AB07E
:100A5A001208007508008F09E509450860F2750E4D
:100A6A0002AB09AA087D087F02120AF1E4F508F52B
:030A7A000980E50B
:040B0E00EF4E601333
:100B1200750F027510EFD510FDD50FFAEF1F70ECAF
:010B22001EB4
:030B230080E92244
:060B5000C2A58F80D2A7B0
:080B56007F027EEFDEFEDFFCF2
:010B5E002274
:0A0B6B00C2A6120B50C2A7020B56DF
:100AD300CFCDCFCECCCE12094A7C007D0A12094A73
:040AE300ED2430FFCF
:0A0AE700D2A6120B50C2A7020B5654
:100B2600AE07BE0104ED148006BE0209ED243F4463
:060B360080FF120B6B2290
:100B3C007F38120B6B7F0C120B6B7F06120B6B7FCB
:040B4C0001020B6B2C
:0A0B7500AC03120B26AF04020AE7DE
:060AB0008B0A8A0B890C81
:100AB600120B26E4FDAB0AAA0BA90C8D82758300E6
:0C0AC60012090BFF6006120AE70D80E920
:010AD2002201
:0C0A7D007F0AEA24FFFDE434FFFC7E0049
:080A89008E0F8F108C118D12ED
:100A91007F017E00E4FBEBC39512E5116480F874DD
:0E0AA1008098500AAC0FAD101209380B80E897
:010AAF002224
:040AF1008A0C8B0DD3
:100AF500120B26AA0EEAD39400400D120A7DAC0C07
:080B0500AD0D120AD31A80EDB8
:010B0D0022C5
:10099F00120B26C3EA64809480400B7F2B120AE768
:1009AF008A188B19800E7F2D120AE7C3E49BF51965
:1009BF00E49AF518AA17EAD39400400D120A7DACF9
:0909CF0018AD19120AD31A80EDCB
:0109D80022FC
:0409D9008A1C8B1DCC
:1009DD00120B26AA1EEAD3940040297F10120A7F1B
:1009ED00AC1CAD1DCFCDCFCECCCE12094AEF540FDE
:1009FD00FEC3940AEE5004243080022437FF120AFD
:040A0D00E71A80D193
:010A110022C2
:040A12008A218B2288
:100A1600120B26AA23EAD394004028EA24FFFDE419
:100A260034FFFC7F027E00120A89AC21AD22CFCDB5
:100A3600CFCECCCE12094AEF54012430FF120AE77A
:030A46001A80D241
:010A4900228A
:10080000750A00750B03750C00750D01E4F50E7586
:1008100090FFC2932097137F14FE120B0E3097FDAA
:100820007F147E00120B0E750E012096147F147E2D
:1008300000120B0E3096FD7F147E00120B0E750E0B
:10084000042095147F147E00120B0E3095FD7F144A
:100850007E00120B0E750E077590FFC29220971442
:100860007F147E00120B0E3097FD7F147E00120B5A
:100870000E750E022096147F147E00120B0E309619
:10088000FD7F147E00120B0E750E052095147F144B
:100890007E00120B0E3095FD7F147E00120B0E753C
:1008A0000E087590FFC2912097147F147E00120BE2
:1008B0000E3097FD7F147E00120B0E750E032096EE
:1008C000147F147E00120B0E3096FD7F147E0012F2
:1008D0000B0E750E062095147F147E00120B0E3041
:1008E00095FD7F147E00120B0E750E097590FFC2E8
:1008F000922094147F147E00120B0E3094FD7F140E
:0A0900007E00120B0EE4F50EAF0EA0
:01090A0022CA
:03000000020B5F91
:0C0B5F00787FE4F6D8FD758123020A4A75
:10090B00BB010CE58229F582E5833AF583E02250A1
:10091B0006E92582F8E622BBFE06E92582F8E222EB
:0D092B00E58229F582E5833AF583E4932205
:10093800EF8DF0A4A8F0CF8CF0A428CE8DF0A42ED3
:02094800FE228D
:10094A00BC000BBE0029EF8DF084FFADF022E4CC91
:10095A00F875F008EF2FFFEE33FEEC33FCEE9DEC5A
:10096A00984005FCEE9DFE0FD5F0E9E4CEFD22EDA0
:10097A00F8F5F0EE8420D21CFEADF075F008EF2FEA
:10098A00FFED33FD4007985006D5F0F222C398FDDB
:05099A000FD5F0EA2278
:00000001FF
