:100C7F004655434B20594F552000204F4B004552AE
:020C8F00520011
:030CB40001220119
:10093400120C6B7BFF7A0C797F7D057F01120BDF34
:100944001208008F25E52560F7D3940A5035E52277
:100954009404502FAE23AF247C007D0A120A0E8E1D
:10096400238F24E52575F00A84E5F02524F524E495
:100974003523F523750C04AB24FA7D057F02120C94
:10098400200522E525640B7034E524B4D20DE5235B
:10099400B404087BFF7A0C798980067BFF7A0C7992
:1009A4008D7D0E7F01120BDFE4F523F524F522750E
:1009B4000C04AB24AA237D057F02120C20E52564D8
:1009C4000C6003020944F523F524F522750C04ABED
:0D09D40024AA237D057F02120C2002094495
:040C3D00EF4E601303
:100C4100750D02750EEFD50EFDD50DFAEF1F70EC87
:010C51001E84
:030C520080E92214
:060C9100C2A58F80D2A76E
:080C97007F027EEFDEFEDFFCB0
:010C9F002232
:0A0CA000C2A6120C91C2A7020C9725
:100C0200CFCDCFCECCCE120A207C007D0A120A2094
:040C1200ED2430FF9E
:0A0C1600D2A6120C91C2A7020C979F
:100C5500AE07BE0104ED148006BE0209ED243F4433
:060C650080FF120CA0222A
:100C6B007F38120CA07F0C120CA07F06120CA07FF9
:040C7B0001020CA0C6
:0A0CAA00AC03120C55AF04020C1647
:060BDF008B088A09890A57
:100BE500120C55E4FDAB08AA09A90A8D827583008C
:0C0BF5001209E1FF6006120C160D80E9E9
:010C010022D0
:0C0BAC007F0AEA24FFFDE434FFFC7E0019
:080BB8008E0D8F0E8C0F8D10C5
:100BC0007F017E00E4FBEBC39510E50F6480F874B1
:0E0BD0008098500AAC0DAD0E120A0E0B80E894
:010BDE0022F4
:040C20008A0A8B0BA6
:100C2400120C55AA0CEAD39400400D120BACAC0A7A
:080C3400AD0B120C021A80ED59
:010C3C002295
:100B0100120C55C3EA64809480400B7F2B120C16A3
:100B11008A168B17800E7F2D120C16C3E49BF517D6
:100B2100E49AF516AA15EAD39400400D120BACAC69
:090B310016AD17120C021A80ED3A
:010B3A002298
:040B3B008A1A8B1B6C
:100B3F00120C55AA1CEAD3940040297F10120BAE59
:100B4F00AC1AAD1BCFCDCFCECCCE120A20EF540FA7
:100B5F00FEC3940AEE5004243080022437FF120C97
:040B6F00161A80D101
:010B7300225F
:040B74008A1F8B2029
:100B7800120C55AA21EAD394004028EA24FFFDE488
:100B880034FFFC7F027E00120BB8AC1FAD20CFCD26
:100B9800CFCECCCE120A20EF54012430FF120C160F
:030BA8001A80D2DE
:010BAB002227
:10080000750800750903750A00750B01E4F50C7590
:1008100090FFC2932097137F14FE120C3D3097FD7A
:100820007F147E00120C3D750C012096147F147EFF
:1008300000120C3D3096FD7F147E00120C3D750CAD
:10084000042095147F147E00120C3D3095FD7F141A
:100850007E00120C3D750C072094147F147E00124C
:100860000C3D3094FD7F147E00120C3D750C0B7511
:1008700090FFC2922097147F147E00120C3D309797
:10088000FD7F147E00120C3D750C022096147F141F
:100890007E00120C3D3096FD7F147E00120C3D75DB
:1008A0000C052095147F147E00120C3D3095FD7FC1
:1008B000147E00120C3D750C082094147F147E00E9
:1008C000120C3D3094FD7F147E00120C3D750C0A15
:1008D0007590FFC2912097147F147E00120C3D305A
:1008E00097FD7F147E00120C3D750C032096147F3B
:1008F000147E00120C3D3096FD7F147E00120C3DDC
:10090000750C062095147F147E00120C3D3095FD69
:100910007F147E00120C3D750C092094147F147E08
:1009200000120C3D3094FD7F147E00120C3D750CBE
:030930000CAF0CFD
:0109330022A1
:03000000020A757C
:0C0A7500787FE4F6D8FD758125020ABCEC
:1009E100BB010CE58229F582E5833AF583E02250CB
:1009F10006E92582F8E622BBFE06E92582F8E22215
:0D0A0100E58229F582E5833AF583E493222E
:100A0E00EF8DF0A4A8F0CF8CF0A428CE8DF0A42EFC
:020A1E00FE22B6
:100A2000BC000BBE0029EF8DF084FFADF022E4CCBA
:100A3000F875F008EF2FFFEE33FEEC33FCEE9DEC83
:100A4000984005FCEE9DFE0FD5F0E9E4CEFD22EDC9
:100A5000F8F5F0EE8420D21CFEADF075F008EF2F13
:100A6000FFED33FD4007985006D5F0F222C398FD04
:050A70000FD5F0EA22A1
:100A8100020934E493A3F8E493A34003F68001F24E
:100A910008DFF48029E493A3F85407240CC8C33376
:100AA100C4540F4420C8834004F456800146F6DF45
:100AB100E4800B0102040810204080900CB4E47E15
:100AC100019360BCA3FF543F30E509541FFEE4933A
:100AD100A360010ECF54C025E060A840B8E493A301
:100AE100FAE493A3F8E493A3C8C582C8CAC583CA2C
:100AF100F0A3C8C582C8CAC583CADFE9DEE780BEE4
:010CB700003C
:00000001FF
