:100889001208008F0AE50A60F7B40102B2A1E50A6D
:10089900B40202B2A2E50AB40302B2A3E50AB4049F
:0508A900DFB2A480DBBA
:03000B0002086187
:04086100C0E0C0D063
:10086500758CFC758A610509E50970020508C39454
:0F08750064E50894004008750800750900B2A1F9
:05088400D0D0D0E032ED
:1008C6005389F0438901C28DD28C758CFC758A637D
:0708D600D2A9D2AFC2B92282
:0408AE00EF4E601396
:1008B200750C02750DEFD50DFDD50CFAEF1F70EC1E
:0108C2001E17
:0308C30080E922A7
:10080000E4F50B20B1137F14FE1208AE30B0FD7F6B
:10081000147E001208AE750B0120B0147F147E0008
:100820001208AE30B1FD7F147E001208AE750B02C7
:1008300020B2147F147E001208AE30B2FD7F147E09
:10084000001208AE750B0320B3147F147E0012084B
:10085000AE30B3FD7F147E001208AE750B04AF0BF3
:010860002275
:030000000208DD16
:0C08DD00787FE4F6D8FD75810D020889D3
:00000001FF
