:100861001208008F0BE50B60F7B40102B2A1E50B92
:10087100B40202B2A2E50BB40302B2A3E50BB404C5
:05088100DFB2A480DBE2
:10089E005389F0438901C28DD28C758CFC758A63A5
:0708AE00D2A9D2AFC2B922AA
:04088600EF4E6013BE
:10088A00750902750AEFD50AFDD509FAEF1F70EC52
:01089A001E3F
:03089B0080E922CF
:10080000E4F50820B0137F14FE12088630B0FD7F97
:10081000147E0012088675080120B1147F147E0032
:1008200012088630B1FD7F147E001208867508021A
:1008300020B2147F147E0012088630B2FD7F147E31
:100840000012088675080320B3147F147E00120876
:100850008630B3FD7F147E00120886750804AF0849
:010860002275
:030000000208B53E
:0C08B500787FE4F6D8FD75810B02086125
:00000001FF
