:03098F00010B0059
:1009430012097875A0FE12088C8F0AE50A60F70574
:0D0953000BE50BC3940240EEE4F50B80E9C8
:03000B000208EDFB
:0B08ED00C0E0C0D075D000C000C00704
:1008F800758CFC758A610509E50970020508C394C1
:10090800F4E5089401402B750800750900B2A1E5CB
:100918000B700DAFA07801EF08800123D8FDF5A07A
:10092800E50BB4010DAFA07801EF08800103D8FDF5
:02093800F5A028
:09093A00D007D000D0D0D0E0328B
:100978005389F0438901C28DD28C758CFC758A63CA
:07098800D2A9D2AFC2B922CF
:04096000EF4E6013E3
:10096400750D02750EEFD50EFDD50DFAEF1F70EC67
:010974001E64
:0309750080E922F4
:10088C00E4F50C20B1137F14FE12096030B0FD7F2B
:10089C00147E00120960750C0120B0147F147E00C8
:1008AC0012096030B1FD7F147E00120960750C02D4
:1008BC0020B2147F147E0012096030B2FD7F147ECA
:1008CC0000120960750C0320B3147F147E0012090A
:1008DC006030B3FD7F147E00120960750C04AF0C00
:0108EC0022E9
:03000000020800F3
:0C080000787FE4F6D8FD75810E020847F1
:10080C00020943E493A3F8E493A34003F68001F2B6
:10081C0008DFF48029E493A3F85407240CC8C333ED
:10082C00C4540F4420C8834004F456800146F6DFBC
:10083C00E4800B010204081020408090098FE47EB4
:10084C00019360BCA3FF543F30E509541FFEE493B1
:10085C00A360010ECF54C025E060A840B8E493A378
:10086C00FAE493A3F8E493A3C8C582C8CAC583CAA3
:10087C00F0A3C8C582C8CAC583CADFE9DEE780BE5B
:010992000064
:00000001FF
