:10097200750800750901120A2E0509E509700205BC
:10098200087FE87E031209BD750E05AB09AA087D32
:08099200017F011209FB80E165
:060A4200C2A58F80D2A7BF
:080A48007F027EEFDEFEDFFC01
:010A50002283
:0A0A5D00C2A6120A42C2A7020A480C
:1009DD00CFCDCFCECCCE12083F7C007D0A12083F82
:0409ED00ED2430FFC6
:0A09F100D2A6120A42C2A7020A4869
:100A1800AE07BE0104ED148006BE0209ED243F4472
:060A280080FF120A5D22AE
:100A2E007F38120A5D7F0C120A5D7F06120A5D7F07
:040A3E0001020A5D4A
:0A0A6700AC03120A18AF040209F1F3
:06099A008B248A2589264A
:1009A000120A18E4FDAB24AA25A9268D82758300BE
:0C09B000120800FF60061209F10D80E93A
:0109BC002218
:0C093F007F0AEA24FFFDE434FFFC7E0088
:08094B008E0F8F108C118D122C
:100953007F017E00E4FBEBC39512E5116480F8741C
:0E0963008098500AAC0FAD1012082D0B80E8E2
:010971002263
:0409FB008A0C8B0DCA
:1009FF00120A18AA0EEAD39400400D12093FAC0C4C
:080A0F00AD0D1209DD1A80EDA6
:010A170022BC
:10089400120A18C3EA64809480400B7F2B1209F17A
:1008A4008A188B19800E7F2D1209F1C3E49BF51968
:1008B400E49AF518AA17EAD39400400D12093FAC44
:0908C40018AD191209DD1A80EDCE
:0108CD002208
:0408CE008A1C8B1DD8
:1008D200120A18AA1EEAD3940040297F1012094175
:1008E200AC1CAD1DCFCDCFCECCCE12083FEF540FF6
:1008F200FEC3940AEE5004243080022437FF12090A
:04090200F11A80D195
:0109060022CE
:040907008A218B2294
:10090B00120A18AA23EAD394004028EA24FFFDE434
:10091B0034FFFC7F027E0012094BAC21AD22CFCD00
:10092B00CFCECCCE12083FEF54012430FF1209F189
:03093B001A80D24D
:01093E002296
:1009BD00E4FDFCC3ED9FEC9E5015E4FBFA0BBB0070
:0F09CD00010AEB64724A70F50DBD00010C80E465
:0109DC0022F8
:03000000020A51A0
:0C0A5100787FE4F6D8FD7581260209725A
:10080000BB010CE58229F582E5833AF583E02250AD
:1008100006E92582F8E622BBFE06E92582F8E222F7
:0D082000E58229F582E5833AF583E4932211
:10082D00EF8DF0A4A8F0CF8CF0A428CE8DF0A42EDF
:02083D00FE2299
:10083F00BC000BBE0029EF8DF084FFADF022E4CC9D
:10084F00F875F008EF2FFFEE33FEEC33FCEE9DEC66
:10085F00984005FCEE9DFE0FD5F0E9E4CEFD22EDAC
:10086F00F8F5F0EE8420D21CFEADF075F008EF2FF6
:10087F00FFED33FD4007985006D5F0F222C398FDE7
:05088F000FD5F0EA2284
:00000001FF
