:0308D900010AFF12
:0408BE00EF4E601683
:1008C20000000075080B7509BED509FDD508FAEFC1
:0408D2001F70E91E8C
:0308D60080E62297
:10088C0020B0FD7F147E001208BE30B0FD7F147EB8
:10089C00001208BE050AE50AC394084003E4F50AF1
:1008AC00AF0A7401A807088002C333D8FCF4F5A082
:0208BC0080CEEC
:03000000020800F3
:0C080000787FE4F6D8FD75810A020847F5
:10080C0002088CE493A3F8E493A34003F68001F26E
:10081C0008DFF48029E493A3F85407240CC8C333ED
:10082C00C4540F4420C8834004F456800146F6DFBC
:10083C00E4800B01020408102040809008D9E47E6B
:10084C00019360BCA3FF543F30E509541FFEE493B1
:10085C00A360010ECF54C025E060A840B8E493A378
:10086C00FAE493A3F8E493A3C8C582C8CAC583CAA3
:10087C00F0A3C8C582C8CAC583CADFE9DEE780BE5B
:0108DC00001B
:00000001FF
