:040B4F00EF4E6013F2
:100B53007527027528EFD528FDD527FAEF1F70EC0E
:010B63001E73
:030B640080E92203
:10092000E4F52920B1137F14FE120B4F30B0FD7F88
:10093000147E00120B4F75290120B0147F147E0025
:10094000120B4F30B1FD7F147E00120B4F75290240
:1009500020B2147F147E00120B4F30B2FD7F147E44
:1009600000120B4F75290320B3147F147E00120B65
:100970004F30B3FD7F147E00120B4F752904AF2951
:010980002254
:100B67005389F0438901C28DD28C758CFC758A63D9
:070B7700D2A9D2AFC2B922DE
:0C0BC50054696D653A20203A20203A0067
:0D0BB700011A32011C0A011B160218000071
:10098100751A32751C0B751B16120B947BFF7A0BB3
:1009910079C57D017F01120AF1120B67E51AFB7A15
:1009A10000750C027D0C7F01120B32E51CFB7A00F5
:1009B100750C027D097F01120B32E51BFB7A007574
:0B09C1000C027D067F01120B3280D17A
:03000B000209CC1B
:0409CC00C0E0C0D0F7
:1009D000758CFC758A610519E51970020518C394B8
:1009E000E8E51894034027751800751900051AE505
:1009F0001A943C4019751A00051CE51C943C400EE5
:0E0A0000751C00051BE51B94184003751B00B8
:050A0E00D0D0D0E03261
:060BA800C2A58F80D2A758
:080BAE007F027EEFDEFEDFFC9A
:010BB600221C
:0A0BD100C2A6120BA8C2A7020BAEC9
:100B1400CFCDCFCECCCE12083F7C007D0A12083F49
:040B2400ED2430FF8D
:0A0B2800D2A6120BA8C2A7020BAE62
:100B7E00AE07BE0104ED148006BE0209ED243F440B
:060B8E0080FF120BD122D2
:100B94007F38120BD17F0C120BD17F06120BD17F41
:040BA40001020BD16E
:0A0BDB00AC03120B7EAF04020B28DE
:060AF1008B088A09890A46
:100AF700120B7EE4FDAB08AA09A90A8D8275830053
:0C0B0700120800FF6006120B280D80E9A8
:010B130022BF
:0C0ABE007F0AEA24FFFDE434FFFC7E0008
:080ACA008E0D8F0E8C0F8D10B4
:100AD2007F017E00E4FBEBC39510E50F6480F874A0
:0E0AE2008098500AAC0DAD0E12082D0B80E866
:010AF00022E3
:040B32008A0A8B0B95
:100B3600120B7EAA0CEAD39400400D120ABEAC0A30
:080B4600AD0B120B141A80ED37
:010B4E002284
:100A1300120B7EC3EA64809480400B7F2B120B2859
:100A23008A168B17800E7F2D120B28C3E49BF517B4
:100A3300E49AF516AA15EAD39400400D120ABEAC47
:090A430016AD17120B141A80ED18
:010A4C002287
:040A4D008A1F8B2051
:100A5100120B7EAA21EAD3940040297F10120AC00A
:100A6100AC1FAD20CFCDCFCECCCE12083FEF540F6F
:100A7100FEC3940AEE5004243080022437FF120B87
:040A8100281A80D1DE
:010A8500224E
:040A86008A248B250E
:100A8A00120B7EAA26EAD394004028EA24FFFDE44A
:100A9A0034FFFC7F027E00120ACAAC24AD25CFCDFA
:100AAA00CFCECCCE12083FEF54012430FF120B28D0
:030ABA001A80D2CD
:010ABD002216
:030000000208945F
:0C089400787FE4F6D8FD7581290208DBAE
:10080000BB010CE58229F582E5833AF583E02250AD
:1008100006E92582F8E622BBFE06E92582F8E222F7
:0D082000E58229F582E5833AF583E4932211
:10082D00EF8DF0A4A8F0CF8CF0A428CE8DF0A42EDF
:02083D00FE2299
:10083F00BC000BBE0029EF8DF084FFADF022E4CC9D
:10084F00F875F008EF2FFFEE33FEEC33FCEE9DEC66
:10085F00984005FCEE9DFE0FD5F0E9E4CEFD22EDAC
:10086F00F8F5F0EE8420D21CFEADF075F008EF2FF6
:10087F00FFED33FD4007985006D5F0F222C398FDE7
:05088F000FD5F0EA2284
:1008A000020981E493A3F8E493A34003F68001F2E4
:1008B00008DFF48029E493A3F85407240CC8C33359
:1008C000C4540F4420C8834004F456800146F6DF28
:1008D000E4800B0102040810204080900BB7E47EF6
:1008E000019360BCA3FF543F30E509541FFEE4931D
:1008F000A360010ECF54C025E060A840B8E493A3E4
:10090000FAE493A3F8E493A3C8C582C8CAC583CA0E
:10091000F0A3C8C582C8CAC583CADFE9DEE780BEC6
:010BC4000030
:00000001FF
