:040B4600EF4E6013FB
:100B4A007527027528EFD528FDD527FAEF1F70EC17
:010B5A001E7C
:030B5B0080E9220C
:10092000E4F52920B1137F14FE120B4630B0FD7F91
:10093000147E00120B4675290120B0147F147E002E
:10094000120B4630B1FD7F147E00120B4675290252
:1009500020B2147F147E00120B4630B2FD7F147E4D
:1009600000120B4675290320B3147F147E00120B6E
:100970004630B3FD7F147E00120B46752904AF2963
:010980002254
:100B5E005389F0438901C28DD28C758CFC758A63E2
:070B6E00D2A9D2AFC2B922E7
:0C0BBC0054696D653A20203A20203A0070
:0D0BAE00011A00011C00011B0002180000CC
:1009C800120B8B7BFF7A0B79BC7D017F01120AE841
:1009D800120B5EE51AFB7A00750C027D0C7F011282
:1009E8000B29E51CFB7A00750C027D097F01120BAF
:1009F80029E51BFB7A00750C027D067F01120B2985
:020A080080D19B
:03000B0002098166
:04098100C0E0C0D042
:10098500758CFC758A610519E51970020518C39403
:10099500E8E51894034027751800751900051AE550
:1009A5001A943C4019751A00051CE51C943C400E30
:0E09B500751C00051BE51B94184003751B0004
:0509C300D0D0D0E032AD
:060B9F00C2A58F80D2A761
:080BA5007F027EEFDEFEDFFCA3
:010BAD002225
:0A0BC800C2A6120B9FC2A7020BA5E4
:100B0B00CFCDCFCECCCE12083F7C007D0A12083F52
:040B1B00ED2430FF96
:0A0B1F00D2A6120B9FC2A7020BA57D
:100B7500AE07BE0104ED148006BE0209ED243F4414
:060B850080FF120BC822E4
:100B8B007F38120BC87F0C120BC87F06120BC87F65
:040B9B0001020BC880
:0A0BD200AC03120B75AF04020B1FF9
:060AE8008B088A09890A4F
:100AEE00120B75E4FDAB08AA09A90A8D8275830065
:0C0AFE00120800FF6006120B1F0D80E9BB
:010B0A0022C8
:0C0AB5007F0AEA24FFFDE434FFFC7E0011
:080AC1008E0D8F0E8C0F8D10BD
:100AC9007F017E00E4FBEBC39510E50F6480F874A9
:0E0AD9008098500AAC0DAD0E12082D0B80E86F
:010AE70022EC
:040B29008A0A8B0B9E
:100B2D00120B75AA0CEAD39400400D120AB5AC0A4B
:080B3D00AD0B120B0B1A80ED49
:010B4500228D
:100A0A00120B75C3EA64809480400B7F2B120B1F74
:100A1A008A168B17800E7F2D120B1FC3E49BF517C6
:100A2A00E49AF516AA15EAD39400400D120AB5AC59
:090A3A0016AD17120B0B1A80ED2A
:010A43002290
:040A44008A1F8B205A
:100A4800120B75AA21EAD3940040297F10120AB725
:100A5800AC1FAD20CFCDCFCECCCE12083FEF540F78
:100A6800FEC3940AEE5004243080022437FF120B90
:040A78001F1A80D1F0
:010A7C002257
:040A7D008A248B2517
:100A8100120B75AA26EAD394004028EA24FFFDE45C
:100A910034FFFC7F027E00120AC1AC24AD25CFCD0C
:100AA100CFCECCCE12083FEF54012430FF120B1FE2
:030AB1001A80D2D6
:010AB400221F
:030000000208945F
:0C089400787FE4F6D8FD7581290208DBAE
:10080000BB010CE58229F582E5833AF583E02250AD
:1008100006E92582F8E622BBFE06E92582F8E222F7
:0D082000E58229F582E5833AF583E4932211
:10082D00EF8DF0A4A8F0CF8CF0A428CE8DF0A42EDF
:02083D00FE2299
:10083F00BC000BBE0029EF8DF084FFADF022E4CC9D
:10084F00F875F008EF2FFFEE33FEEC33FCEE9DEC66
:10085F00984005FCEE9DFE0FD5F0E9E4CEFD22EDAC
:10086F00F8F5F0EE8420D21CFEADF075F008EF2FF6
:10087F00FFED33FD4007985006D5F0F222C398FDE7
:05088F000FD5F0EA2284
:1008A0000209C8E493A3F8E493A34003F68001F29D
:1008B00008DFF48029E493A3F85407240CC8C33359
:1008C000C4540F4420C8834004F456800146F6DF28
:1008D000E4800B0102040810204080900BAEE47EFF
:1008E000019360BCA3FF543F30E509541FFEE4931D
:1008F000A360010ECF54C025E060A840B8E493A3E4
:10090000FAE493A3F8E493A3C8C582C8CAC583CA0E
:10091000F0A3C8C582C8CAC583CADFE9DEE780BEC6
:010BBB000039
:00000001FF
